:100000000C949B020C94B8020C94B8020C94B802A5
:100010000C94B8020C94B8020C94B8020C94B80278
:100020000C94B8020C94B8020C94AA180C94E6171D
:100030000C947C0F0C94B8020C94B8020C94B80287
:100040000C94B8020C94B8020C94B8020C94B80248
:100050000C94B8020C944A0F0C94B8020C94B80299
:100060000C94B8020C94B8020C94B8020C94B80228
:100070000C94B8020C94B8020C94B8020C94B80218
:100080000C94B8020C94B8020C94B8020C94B80208
:100090000C94B8020C94B8020C94B8020C94B802F8
:1000A0000C94B8020C94B8020C94B802B604B804CC
:1000B000C304BA04BC04BE04C004C204C504C7041B
:1000C000C904D404CB04CD04CF04D104D304D60492
:1000D00078057805B605B605F205FB07A207FB070C
:1000E0001206FB07FF06FF060C070C070C070C07A0
:1000F0000C070C070C070C070C070C070C070C0768
:100100000C070C070C070C071D0745074A0751078A
:100110006907C008C308C608C908CC08CF08D208B8
:10012000A911AE11B811AC11B111B611B411F71576
:100130001E16BE171E16BE1766168916BE1787171F
:100140009A17871C871C9A1C9A1C901C9A1C9A1C34
:100150009A1C871C871C951C9A1C9A1C951C2900AC
:100160002B002900E100006100001E0014000400C3
:100170001D00E30002511F001A0016001B000004BE
:100180002A00200008000700060050002C00210073
:100190001500090019004F000100220017000A0095
:1001A00005000000035101000100000001510000A2
:1001B00001002300010000000251000001002400A2
:1001C0001C000B00110000000351250018000D0059
:1001D00010005100010026000C000E0036005200F5
:1001E0002800270012000F0037002F002A002D00E2
:1001F000130036023800300049002E003100320072
:100200000151007100000100010001000100010026
:10021000000001000100010001000100251401009F
:100220000100010001000100640001000100010063
:10023000010001002414010001000100010001007F
:1002400001000100010001000100000001000100A7
:100250000100000001000000010001000100000099
:100260000100000001000100010050000100000039
:100270000100010001005100010001000100010026
:1002800001005200010001002714010001004F008D
:1002900001000100640201000100010001000100F1
:1002A000261401000100010001000100000001000E
:1002B0000100010001000100000001000100010037
:1002C0000100010001001F140100010001000100F4
:1002D0000100010001000100010001002D142114A2
:1002E0000100010001000100010001000100010006
:1002F00001000000010001000100000001000000F9
:1003000001000100010000000100000001000100E7
:100310000100500001000000010001000100510037
:100320000100010001000100010052000100010074
:100330006414010001004F000100010030140100AD
:100340000100330001000100300201002F003400E1
:100350000100010000000100010001000100010096
:1003600000003A00010001000100010001003B0013
:10037000010001000100010001003C00010001003A
:100380000100010001003D00010001000100010029
:1003900001003E0001000100010000000100010019
:1003A000010000000100000001003F00010000000A
:1003B00001000000010040000100010001000000F8
:1003C00001004100010001000100010001004200A4
:1003D00001000100010001000100430001000100D3
:1003E00001000100010044000100010001000100C2
:1003F00001004500010001000100010000000501AD
:100400000980A10185031601002603001A81002A34
:100410008300751095018100C0050C0901A10185BB
:1004200004160100269C021A01002A9C02751095F0
:10043000018100C005010906A1018505050719E034
:1004400029E71500250195087501810205081901A4
:10045000290595057501910295017503910105071F
:10046000190029EF1500250195F075018102C005DD
:10047000010906A101050719E029E71500250195E5
:100480000875018102950175088101050819012986
:1004900005950575019102950175039101050719EF
:1004A0000029FF150026FF00950675088100C00988
:1004B000023B00020100A0FA09040000010301014F
:1004C00000092111010001224000070581030800F5
:1004D0000A090401000103000000092111010001C3
:1004E0002271000705820320000A1201100100009A
:1004F0000008EDFE071301000102030104033000B0
:10050000000016034500720067006F0044006F0092
:100510007800200045005A000000160345007200D4
:1005200067006F0044006F007800200045005A000B
:1005300000000403090411241FBECFEFDAE0DEBF80
:10054000CDBF11E0A0E0B1E0EEEBFFE302C005900B
:100550000D92AC3BB107D9F722E0ACEBB1E001C0A2
:100560001D92A43EB207E1F70E94E31A0C94DD1F2E
:100570000C9400008F929F92AF92BF92CF92DF9225
:10058000EF92FF920F931F93CF93DF93CDB7DEB718
:1005900028970FB6F894DEBF0FBECDBFFC01F080E8
:1005A000118183819481892B09F45CC51F3F21F45B
:1005B0000FEFF01609F456C56F0185E0DE011196C4
:1005C00001900D928A95E1F7F601228189819A8145
:1005D000222349F00E94A610082F682F89819A8152
:1005E0000E941F1103C00E94F210082F26E0129FE4
:1005F000F001112434E5039FE00DF11D1124EF0DEE
:10060000F11DEE0FFF1FE25AFE4F05911491F60106
:100610008281063FFCE51F07A1F5882309F422C566
:100620001CC01092BD01F60192810531FCE51F0747
:1006300008F40CC10C3DECE51E0709F465C108F493
:1006400013C10D3D3CE5130709F464C10E3D1C4583
:1006500009F005C2992309F405C528960FB6F89448
:10066000DEBF0FBECDBFDF91CF911F910F91FF90E5
:10067000EF90DF90CF90BF90AF909F908F900C94B1
:100680000810882319F1033E2CE51207C1F050F43D
:10069000013E8CE5180781F0023E9CE51907B1F494
:1006A00081E010C0043EECE51E0759F0053EFCE574
:1006B0001F0761F484E006C01092AB0205C082E01F
:1006C00001C083E08093AB020E94F30A17FF73C05E
:1006D000F6018281882309F46EC0809179028093AB
:1006E000BC01109279028091AB02813071F048F028
:1006F0008230D1F08430F1F486EE0E94411E88E110
:1007000017C082EE0E94301D15C088E798E00E9455
:10071000CF1488E10E94301D88E10E94D41C88E635
:1007200098E00E94CF1406C082EE0E94301D87E53B
:100730000E94411E8FE39CE90197F1F700C0000081
:100740007801E894F7F85CE0A52EB12CC7010A2CDB
:1007500002C0969587950A94E2F7282F2F7041F0F2
:10076000822F90E02A3010F44D9604C0069702C004
:1007700087E290E00E94411E94E0A91AB108ECEFD4
:10078000AE16EFEFBE0611F78091AB02813039F063
:1007900040F0823031F0843051F488E206C08CE2BF
:1007A00004C082EE0E94D41C02C00E94411E8091AF
:1007B000BC0180937902003FFCE51F07C1F188F47A
:1007C000083D3CE51307D9F0093D8CE51807D9F140
:1007D000073D9CE5190709F024CF26E241EE61EEC2
:1007E00011C0023FECE51E0751F128F1033F2CE553
:1007F000120709F016CF27E246EE66EE03C027E2A5
:1008000045EE65EEC60128960FB6F894DEBF0FBE22
:10081000CDBFDF91CF911F910F91FF90EF90DF90AF
:10082000CF90BF90AF909F908F900C943D0A26E29E
:1008300040EE60EEE7CF27E244EE64EEE3CF26E23F
:1008400042EE62EEDFCF28E241E0DBCF02302CE562
:10085000120708F066C001153CE5130751F001309E
:100860001C4509F448C0FBC006311C4509F4C3C04F
:10087000F6C0992309F4F6C3109279020E94AC1CC9
:100880009FEFE4E3FCE09150E040F040E1F700C06E
:100890000000F89481E08093E00080E28093D8002B
:1008A0001092C9008FE19EE40197F1F700C00000AB
:1008B0001DBA109268001CBC10BE1FBA10927A00BC
:1008C00010926E0010926F001092710010927200E0
:1008D0001092C9001092BC0014B817B81AB81DB80D
:1008E00010BA1092BC0015B818B81BB81EB811BACF
:1008F0000C94003FB7C3992309F4B4C38091D1028B
:1009000081608093D102AEC3992309F4ABC31092E6
:10091000A802A8C3992309F4A5C382E08093A80282
:10092000A1C3992309F49BC080E090E00E945C1E63
:100930008D3E9E4F11F00E94081084E090E00E94CE
:10094000541E90E09093BE028093BD02F801E350E4
:10095000FC45E231F10530F4EA5AFF4F8091BD02C7
:100960000C94AA1E8091BD02816027C0826025C0C0
:10097000846023C0806121C080621FC080641DC06C
:1009800080681BC08460886018C08E7F16C08D7F11
:1009900014C08B7F12C08F7E10C08F7D0EC08F7BE6
:1009A0000CC08F770AC08B7F877F07C087FB222709
:1009B00020F991E0922790FB87F98093BD02609126
:1009C000BD0284E090E00E94621E10927902289697
:1009D0000FB6F894DEBF0FBECDBFDF91CF911F9150
:1009E0000F91FF90EF90DF90CF90BF90AF909F90CE
:1009F0008F900C94AC1C80917902992389F0982FE8
:100A00009A7A81E009F480E08093BE01811102C0EE
:100A100069E201C065E387ED91E00E94D00F0BC051
:100A20008091BE01811102C069E201C065E387EDDA
:100A300091E00E94A50F28960FB6F894DEBF0FBE76
:100A4000CDBFDF91CF911F910F91FF90EF90DF907D
:100A5000CF90BF90AF909F908F900C946010F60154
:100A600000811181992349F0C8010E94A610F82E37
:100A7000682FC8010E941F1104C0C8010E94F21013
:100A8000F82EB8018F2D0E94F90A182F382FF60181
:100A9000258122952F700281011110926E028091A2
:100AA0006C028770A9F0002399F080E2810F8830F2
:100AB00078F082E02F8338879E830E94EB1180912B
:100AC0006C028770EE24E3942F8138859E8181111A
:100AD000E12CA92EA2944FE0A422B12CFCE0AF1689
:100AE000B10408F088C2F501E859FF4F0C94AA1E22
:100AF000892F807F9F70F92E882319F0F29480EF60
:100B0000F8220023B9F0FF2009F406C280E2810F29
:100B1000883010F0311106C090917902F92AF092D4
:100B2000790205C090916E02F92AF0926E020E943D
:100B30006010F2C1812F38870E94D41C3885FF20B5
:100B400009F459C2105EF094183010F0311106C04B
:100B500090917902F922F092790205C090916E028B
:100B6000F922F0926E020E94601045C2492F407F28
:100B7000892F8F70403211F08295807F332319F0D6
:100B80003130E9F025C0002381F030916F0222233B
:100B900051F0213041F4982F932B391709F42BC2CF
:100BA00090936F0228C2832B3FC1222319F021307A
:100BB00009F421C28E830E945A108E813BC100230A
:100BC00021F0223008F017C22FC1211114C232C106
:100BD000002321F0222309F427C19EC1222309F416
:100BE00029C1ACC1292F26952695237030E0211507
:100BF000310521F02130310559F0FDC1002319F0F4
:100C0000812F937002C080E090E00E941B0A01C215
:100C1000002319F0812F937002C080E090E00E94C1
:100C2000050AF7C1892F837009F071C00111EFC166
:100C3000812F829586958770880F880F412F4F707E
:100C400050E060E070E04A015B01082E04C0880CAF
:100C5000991CAA1CBB1C0A94D2F714FF12C00FE007
:100C600010E020E030E004C0000F111F221F331FEE
:100C70008A95D2F7B901A801409550956095709575
:100C800003C040E050E0BA01969596959370892F85
:100C900090E082309105E9F08330910579F100917F
:100CA00070021091710220917202309173020197CB
:100CB00059F0482959296A297B29CB01BA016023B7
:100CC00071238223932320C0802A912AA22AB32A47
:100CD00015C0482959296A297B2980917002909171
:100CE0007102A0917202B09173028A019B010827E0
:100CF00019272A273B27C901B80106C0CB01BA0131
:100D0000682979298A299B290E94251280C10023FC
:100D100019F0892F817001C08695882309F477C165
:100D2000812F829586958770880F880F412F4F708D
:100D300050E060E070E04A015B01082E04C0880CBE
:100D4000991CAA1CBB1C0A94D2F714FF12C00FE016
:100D500010E020E030E004C0000F111F221F331FFD
:100D60008A95D2F7B901A801409550956095709584
:100D700003C040E050E0BA01969596959370892F94
:100D800090E082309105E9F08330910579F100918E
:100D900068021091690220916A0230916B020197FA
:100DA00059F0482959296A297B29CB01BA016023C6
:100DB00071238223932320C0802A912AA22AB32A56
:100DC00015C0482959296A297B2980916802909188
:100DD0006902A0916A02B0916B028A019B01082707
:100DE00019272A273B27C901B80106C0CB01BA0140
:100DF000682979298A299B290E944F1108C1412F0E
:100E000050E0FA01E05EF109E531F10508F07FC03C
:100E1000EC58FF4F0C94AA1E1F70892F8F7100236E
:100E200031F00E940412812F0E94CA1CE4C00E946B
:100E3000C611812F0E94BF1CDEC0002311F12111B9
:100E4000DAC0292F2F7181E090E0A0E0B0E0AC0182
:100E5000BD0104C0440F551F661F771F2A95D2F7A6
:100E60008091680290916902A0916A02B0916B0230
:100E70008A019B01082719272A273B27C901B801A6
:100E800025C0223008F0B7C0DCCF002329F0892F1D
:100E90008F712EC00023D9F3892F8F710E94C61144
:100EA000AAC0002381F0292F2F7181E090E0A0E0FB
:100EB000B0E0BC01CD0104C0660F771F881F991FE9
:100EC0002A95D2F703C060E070E0CB010E944F1179
:100ED00092C0002381F0192F1F71812F0E940412EC
:100EE00028E0129FC0011124836080936C02812F3F
:100EF0000E94041280C081E02F830E94EB112F8199
:100F0000223008F478C082E00E94EB1174C0002304
:100F100039F0222309F4BBCF812F0E94301D6BC012
:100F2000222309F4B9CF193349F43FEF83EC99E058
:100F3000315080409040E1F700C00000812F0E94B6
:100F4000D41C59C0323FB1F028F4303F49F0313F52
:100F5000F9F028C0343FB9F058F0353F71F022C0A5
:100F6000002309F456C09091F80181E0892708C058
:100F700081E008270093F8014CC001114AC081E0CC
:100F80008093F80146C0011144C01092F80141C09D
:100F9000002329F08091F701882329F329C0222317
:100FA00011F337C08091F7012223C1F0882341F06B
:100FB0009091F80181E089278093F8011092F70160
:100FC000812F002319F00E94301D23C00E94D41CE1
:100FD00086E0F60111928A95E9F71BC08823C9F0D3
:100FE000011117C09091F80181E089278093F801E1
:100FF0001092F7010EC0F8E0AF16B10441F04CF0CA
:101000001AE0A11AB10822E0A216B10410F40E945D
:10101000310AEE2039F180916C0280FD23C0F60187
:1010200012828595859585950E940412C6010E94BD
:10103000BA0280916C0285958595859528960FB6A4
:10104000F894DEBF0FBECDBFDF91CF911F910F91FE
:10105000FF90EF90DF90CF90BF90AF909F908F90D8
:101060000C94C61128960FB6F894DEBF0FBECDBF04
:10107000DF91CF911F910F91FF90EF90DF90CF9074
:10108000BF90AF909F908F9008959091BD0292FF76
:101090000DC0282F2871283019F4877F846006C07E
:1010A000282F2471243011F48B7F886093FF0DC0AA
:1010B000282F2871283119F4877E846106C0282FD3
:1010C0002471243111F48B7E886194FD877E08950C
:1010D000282F277081E090E001C0880F2A95EAF759
:1010E000809590916E02892380936E020C9460101B
:1010F000282F277081E090E001C0880F2A95EAF739
:1011000090916E02892B80936E020C946010CF93A5
:10111000E82F873058F58091070190910801892BBD
:1011200009F042C0CE2F80E40E94851490930801FC
:1011300080930701892BB1F482E10E945E149093A1
:10114000080180930701892B69F481E090E001C0D8
:10115000880FCA95EAF780950E945E149093080163
:101160008093070184E98093BC001EC090E0FC01DD
:101170003797E730F105C0F4E757FF4F0C94AA1EEC
:10118000209A289811C0219A29980EC0229A2A984C
:101190000BC0239A2B9808C0529A5A9805C0539AAC
:1011A0005B9802C03E9A4698CF910895CF93DF9303
:1011B000873008F047C08091070190910801892B82
:1011C00009F049C080E40E9485149093080180933F
:1011D0000701892B11F080E031C083E10E945E1489
:1011E0009093080180930701892BA9F781E40E945D
:1011F00085149093080180930701892B61F784E897
:101200008093BC000E94700FEC019091BC0097FD90
:101210000EC00E94700F8C1B9D0B84369105A8F3A5
:101220008EEF9FEF9093080180930701D4CF8091B8
:10123000BB008095109208011092070194E99093E9
:10124000BC000AC09FB18FB1807F86958695937050
:10125000892B809501C080E0DF91CF910895EF92B6
:10126000FF920F931F93CF93DF93CDB7DEB76797AE
:101270000FB6F894DEBF0FBECDBF4B8B5C8B6D8B72
:101280007E8B8F8B0E891F8901151105C1F15F3F80
:1012900011F44F3FA1F1E42EF12CA1E0B0E0042EB7
:1012A00001C0AA0F0A94EAF7852F90E0662319F08F
:1012B0002091F80106C09C0127533E4FF90120817F
:1012C0002A232223A9F046E0489F9001499F300D30
:1012D0001124F701E20FF31FEE0FFF1FED5EFE4F2B
:1012E00040815181FC01E753FE4F9081A92B06C03C
:1012F000FC01E753FE4FA0958081A823A08386E0E0
:10130000FE013D96DF01982F1D929A95E9F74D87D2
:101310005E876F87198B088BDE01179601900D92FF
:101320008A95E1F7CE0107960E949412811137C089
:1013300086E0FE013796DE01119601900D928A95A6
:10134000E1F7FF81E8856A857B856115710539F1D3
:10135000EF3F11F4FF3F19F12091FF0130E0C90187
:101360000196877099274091300250E084179507C5
:1013700079F1F983EA837D836C8396E0929FD001B3
:10138000939FB00D1124A050BE4FFE0131960190E5
:101390000D929A95E1F78093FF010E942F1216E0BB
:1013A000809130029091FF01891711F1189FC001BF
:1013B000112480509E4F0E9494128823C9F080917E
:1013C000300290E001968770992780933002E8CF31
:1013D000109279020E94AC1C1092FF011092300210
:1013E000E9EFF1E086E0DF011D928A95E9F7D7CFBA
:1013F00067960FB6F894DEBF0FBECDBFDF91CF91D9
:101400001F910F91FF90EF9008952091C7013091A7
:10141000C8018217930771F09093C8018093C701A8
:10142000E091BF02F091C002309721F00084F18575
:10143000E02D099408952091C5013091C6018217CD
:10144000930771F09093C6018093C501E091BF02AC
:10145000F091C002309721F00680F781E02D0994C9
:101460000895E091BF02F091C002309721F0019001
:10147000F081E02D099480E008956F927F928F9221
:101480009F92AF92BF92CF92DF92EF92FF920F9313
:101490001F93CF93DF931F92CDB7DEB7742E622ECA
:1014A000FC018281882331F16093BD0169830E9430
:1014B000700F9093C4018093C301698180E2860F0D
:1014C000883008F080C0677081E001C0880F6A959D
:1014D000EAF70F90DF91CF911F910F91FF90EF905E
:1014E000DF90CF90BF90AF909F908F907F906F9044
:1014F0000C94CA1C9091BD0196134AC04091C3013F
:101500005091C4018FB7F894009174021091750244
:1015100020917602309177028FBF48015901AA24A9
:10152000BB246A01E12CF12C041B150B8C149D04C7
:10153000AE04BF0410F401501109083C110540F538
:1015400010E2170D9715B9F080E2890F883040F44A
:10155000977081E001C0880F9A95EAF70E94BF1C3E
:10156000183048F481E0972D977001C0880F9A9544
:10157000EAF70E94CA1C862D0E94411E183018F5F9
:10158000972D977081E001C0880F9A95EAF70AC0FD
:1015900080E2860F8830B8F4677081E001C0880F60
:1015A0006A95EAF70F90DF91CF911F910F91FF900D
:1015B000EF90DF90CF90BF90AF909F908F907F90F3
:1015C0006F900C94BF1C0F90DF91CF911F910F91E2
:1015D000FF90EF90DF90CF90BF90AF909F908F9053
:1015E0007F906F9008956091AB028CE090E00C9436
:1015F000621ECF93DF9326E0729FF001112434E541
:10160000839FE00DF11D1124E60FF11DEE0FFF1F6A
:10161000E25AFE4FC591D491CE01C238D10549F1AD
:10162000B0F4C133D10509F464C048F4C932D1051E
:1016300009F458C0CA32D10509F462C068C0C53384
:10164000D10509F448C0C933D10599F060C0C33E43
:10165000D10541F138F4C03ED10591F0C23ED1052B
:10166000B1F055C0C63ED10521F1C73ED10561F1AB
:101670004EC02091BD0220FD14C221FD12C213C232
:101680002091BD0220FF0FC289E390E00CC220919F
:10169000BD0222FF08C28091BD0284FDB4C183EE69
:1016A00090E001C28091BD0282FFF5CF82EE90E012
:1016B000FAC12091BD0223FFF6C18091BD0284FDD5
:1016C000A2C187EE90E0EFC18091BD0283FFF5CF0C
:1016D00086EE90E0E8C12091BD0225FFE4C189E2D9
:1016E00090E0E1C12091BD0225FFDDC185E390E0DE
:1016F000DAC12091BD0226FFD6C18AE290E0D3C1B3
:101700002091BD0226FFCFC181E390E0CCC1C1157D
:1017100020E5D20708F047C0C11530E4D30708F030
:1017200034C1C83ED10518F5C03ED10508F0BBC193
:10173000C83AD10570F4C53AD10508F0B0C0C1303F
:10174000D10509F4B0C108F45EC1249708F45BC167
:10175000AAC1CF3BD10508F4ADC0C03CD10508F407
:1017600052C1FE01EE0FFF1FE258FD4F02C1C1152D
:1017700020E2D20760F4C11531E0D30708F093C12D
:10178000C03FD10508F43FC1CE0190658CC1C115A1
:1017900080E3D80708F0F0C0FE01FF70EE0FFF1FD6
:1017A000E250FC4FE6C0C11595E5D90708F044C0EA
:1017B000C11524E5D20708F000C1C11532E5D307F1
:1017C00010F5C11581E5D80708F0E3C02C2F237070
:1017D00081E090E002C0880F991F2A95E2F79C688B
:1017E0009E0174E0369527957A95E1F72370922B48
:1017F000EC2FEF70E695E69530E2E39FF0011124BF
:101800008E2B9F2B50C18C2F86958695AE014370F1
:101810005527C115D34508F0C1C090E2899F9001BA
:10182000112481E090E002C0880F991F4A95E2F7E9
:10183000822B932B9C6837C1C1152AE5D207A0F4EF
:10184000C11539E5D30708F0C6C0C11586E5D8072C
:1018500008F4B8C0C11598E5D90708F4D4C09C2F86
:101860008827806F906A1FC1C1152BE5D20708F445
:10187000CAC0CE01C1153CE5D30708F4C1C09056DB
:101880008115904208F0BFC08D2F8F710E944508CE
:10189000FE01FF27F0628F719F01382BAFC0C53A60
:1018A000D10509F4B3C0C63AD10509F0B2C082E847
:1018B00090E4F9C0C83AD10509F4AEC0C93AD105DF
:1018C00009F4ADC0CA3AD10509F4ACC0CB3AD10590
:1018D00009F4ABC0CC3AD10509F4AAC0CB3BD10581
:1018E00009F4A9C0CC3BD10509F4A8C0CD3AD10573
:1018F00009F4A7C0C03BD10509F4A6C0CE3AD10572
:1019000009F4A5C0CF3AD10509F4A4C0C13BD10563
:1019100009F4A3C0C23BD10509F4A2C0C33BD10561
:1019200009F4A1C0C43BD10509F4A0C0C53BD10551
:1019300009F49FC0C63BD10509F49EC0C73BD10541
:1019400009F49DC0C83BD10509F49CC0C93BD10531
:1019500009F49BC0CD3BD10509F49AC0CE3BD1051B
:1019600009F499C0CA3BD10509F498C080E094E419
:101970009AC08591949197C09E013327C901D3FFE6
:1019800002C0986C90C0906C8EC0CE019F70906A1F
:101990008AC09C2F8827816F906A85C090E2899FBA
:1019A0009001112481E090E002C0880F991F4A95B0
:1019B000E2F7822B932B9A6876C09C2F8827846F3E
:1019C000906A71C08C2F0E9445088F7190E0982F0B
:1019D0008827906268C08C2F8F700E944508FE0196
:1019E00094E0F695E7959A95E1F7EF70F0E0FE2F19
:1019F000EE27F06A8F70806E9F01282BC90153C0BB
:101A00009927906650C080E090E04DC081E890E456
:101A10004AC083E890E447C082EE94E444C089EE73
:101A200094E441C08AEE94E43EC085EB94E43BC06C
:101A300086EB94E438C083EB94E435C084EB94E403
:101A400032C087EB94E42FC08CEC94E42CC08DEC76
:101A500094E429C083E895E426C08AE895E423C08D
:101A600082E995E420C084E995E41DC081E296E412
:101A70001AC083E296E417C084E296E414C085E2BB
:101A800096E411C086E296E40EC087E296E40BC0AD
:101A90008FE694E408C080E794E405C08AE296E407
:101AA00002C080EE90E0DF91CF91089580E290E057
:101AB00090930801809307018091C201811111C0A8
:101AC0001092B9008CE08093B80081E08093C2014D
:101AD0002FEF83ED90E3215080409040E1F700C06C
:101AE000000080E40E948514909308018093070110
:101AF000892B09F040C080E00E945E149093080199
:101B000080930701892BB9F580E00E945E149093C1
:101B1000080180930701892B71F58FE30E945E1401
:101B20009093080180930701892B29F584E980931C
:101B3000BC0080E40E948514909308018093070103
:101B4000892BC9F48CE00E945E1490930801809365
:101B50000701892B81F480E00E945E1490930801B4
:101B600080930701892B39F48FE30E945E149093D0
:101B700008018093070184E98093BC0080910701EC
:101B8000089556985E9825982D9826982E9827980F
:101B90002F988FEF90E09093890080938800909326
:101BA0008B0080938A0090938D0080938C00259AFF
:101BB0002D9A2FEF80E792E0215080409040E1F78E
:101BC00000C00000269A2E9A2FEF80E792E0215065
:101BD00080409040E1F700C00000279A2F9A2FEF35
:101BE00080E792E0215080409040E1F700C0000083
:101BF00025982D982FEF80E792E02150804090406B
:101C0000E1F700C0000026982E982FEF80E792E0C1
:101C1000215080409040E1F700C0000027982F98A5
:101C200056985E9825982D9826982E9827982F9844
:101C3000089584B1807F84B985B1807F85B98AB1E8
:101C4000837F8AB98BB1837F8BB93E98469808957C
:101C500080B38C7080BB81B3836F81BB08959F92EA
:101C6000AF92BF92CF92DF92EF92FF920F931F93AA
:101C7000CF93DF938091070190910801892B91F018
:101C80008091C1018F5F8093C10181110BC00E94BF
:101C9000560D90E09093080180930701892B11F471
:101CA0000E94C10D0FEA12E026EBE22E22E0F22E96
:101CB0006801C0E0912C97E0A92EAC0E8C2F0E94F9
:101CC00087088A2D0E9487088C2F0E94D608F6016B
:101CD0009081981721F08083BB24B39401C0B12C6C
:101CE0008A2D0E94D608F7019081981719F08083F9
:101CF00081E001C080E0B82A9B280E94190ECF5FC6
:101D0000FFEFCF1ADF0A8FEFE81AF80AC73099F60B
:101D10000E94700F6AEF70E00E94961E9C01682F6F
:101D20008091C0018823E9F11092C001E091A902DD
:101D3000F091AA02DF011E9690E07BEF8AEFE82E79
:101D4000F12C80818B3FA9F0482F50E0681728F0D4
:101D5000E901C41BD50BAE0106C06701C41AD50A40
:101D6000A601420F531F4F30510514F0708301C07C
:101D700091E03196EA17FB0721F79093C00191108B
:101D800002C0911110C01092BF01A091A902B091A0
:101D9000AA029091C001E2ECF2E080E03EE03E0F4A
:101DA00007C09110F0CF8091BF018111ECCF16C018
:101DB000E80129918E014081421741F04C914B3F3F
:101DC00021F46C93208391E001C081E0119631965B
:101DD0003E13EECF9093C0018093BF01892DDF9118
:101DE000CF911F910F91FF90EF90DF90CF90BF9018
:101DF000AF909F90089580917B020895CF93DF93D9
:101E00002091A802211103C020919E0202C022301D
:101E100011F02430E1F520910601222339F02091C0
:101E2000BD0227FF03C060E222E002C068E021E0BB
:101E30002093E9002FEF3091E800215035FD06C0D6
:101E400035ED3A95F1F700002111F5CF2091E8002A
:101E500025FF1DC0EC0180910601811105C040E005
:101E600050E068E070E003C070E040E050E0CE0178
:101E70000E94DA148091E8008E778093E80080E277
:101E8000FE01ACE7B2E001900D928A95E1F7DF9197
:101E9000CF91089578941F920F920FB60F9211244C
:101EA0008F939F93AF93BF9380917402909175022B
:101EB000A0917602B09177020196A11DB11D809389
:101EC000740290937502A0937602B0937702BF914B
:101ED000AF919F918F910F900FBE0F901F9018950B
:101EE0002FB7F8948091740290917502A0917602B8
:101EF000B09177022FBF08951F920F920FB60F92E5
:101F000011248F939F93AF93BF938091C10281114E
:101F100013C08091740290917502A0917602B091E5
:101F200077024196A11DB11D8093740290937502B2
:101F3000A0937602B0937702BF91AF919F918F915A
:101F40000F900FBE0F901F9018952091060122232D
:101F500021F02091BD0227FD04C0FC0132960896B5
:101F600019C0262F2695269526952E31C0F4FC0102
:101F7000E20FF11D677081E090E001C0880F6A9563
:101F8000EAF7809592818923828308953196E81734
:101F9000F90729F020812613F9CF1082F7CF089591
:101FA00020910601222321F02091BD0227FD05C0CA
:101FB000FC0132962FEF30E019C0262F269526958A
:101FC00026952E3120F5FC01E20FF11D677081E0AE
:101FD00090E001C0880F6A95EAF79281892B82838D
:101FE00008952F3F39F03F5F363041F0419146135D
:101FF000F8CF0DC04111F7CF232FF5CF2F3F39F088
:10200000FC01E20FF11D27FDFA9562830895089502
:102010006DEE7EEF80E090E00E94801E60E082E046
:1020200090E00E94621E60E083E090E00E94621EE9
:10203000109270021092710210927202109273024A
:1020400060E084E090E00E94621E60E085E090E045
:102050000E94621E60E086E090E00E94621E6FEFC8
:1020600087E090E00E94621E40E050E0BA0188E004
:1020700090E00E94741E60E08DE090E00E94621E7D
:1020800040E050E0BA0188E190E00E94741E60E0F8
:1020900087E190E00E94621E40E050E0BA018FE0CC
:1020A00090E00E94741E40E050E0BA0183E190E0AD
:1020B0000C94741E80916F02811110926F0208952A
:1020C00090916E0280917902892B20916D02982F58
:1020D000922B9093D70180916F028823D9F0892B9E
:1020E0008093D70180910601882331F08091BD0251
:1020F00087FF02C08EE101C086E0E9EDF1E090E0EB
:10210000815028F021912223D9F39F5FF9CF9111BB
:102110000E945A10E091BF02F091C0023097A9F0DE
:1021200080910601882359F08091BD0287FF07C086
:102130008091D7018093D80185E08093D7010280F8
:10214000F381E02D87ED91E009940895BF92CF923D
:10215000DF92EF92FF920F931F93CF93DF938C0147
:10216000C0907002D0907102E0907202F090730201
:102170008091680290916902A0916A02B0916B020D
:10218000C82AD92AEA2AFB2ACFE1D0E0D701C60122
:102190000C2E04C0B695A795979587950A94D2F70B
:1021A00080FF07C0BC2EB8018C2F0E94F90A01974E
:1021B00019F4219758F7B12C8B2DDF91CF911F91F6
:1021C0000F91FF90EF90DF90CF90BF900895CF9345
:1021D000DF93EC010E94A610BE010E94F90ADF9174
:1021E000CF910895292F220F920F990F890F682FF1
:1021F000669566956695982F977085E0689FB00103
:10220000112440E050E080E0FA01E60FF71FEF5C98
:10221000FD4F208130E0092E02C0369527950A94A3
:10222000E2F721703327042E01C0220F0A94EAF747
:10223000822B4F5F5F4F4530510531F70895292FAD
:10224000220F920F990F890FA82FA695A695A695F4
:10225000877051E001C0550F8A95EAF785E0A89F85
:10226000D001112420E030E070E0F901EA0FFB1FFB
:10227000EF5CFD4F4081CB01022E02C09695879501
:102280000A94E2F781709927819584278523842712
:1022900080832F5F3F4F2530310539F708950F9325
:1022A0001F93AB01BC01CB01AA27BB270097A10557
:1022B000B10511F0E0E103C0DB01CA01E0E0092F44
:1022C0001A2F2B2F3327011511052105310519F080
:1022D000E85FD901C8018C019D01F4E0369527958E
:1022E00017950795FA95D1F70115110521053105C7
:1022F00019F0EC5FD901C8018C019D01F2E036951F
:10230000279517950795FA95D1F701151105210520
:10231000310519F0EE5FD901C801B695A7959795DB
:102320008795892B8A2B8B2B09F0EF5F56985E9847
:1023300025982D9826982E9827982F988E2F90E0E4
:10234000FC013197E730F105A8F4E057FF4F0C94FA
:10235000AA1E259A2D9A0EC0259A2D9A269A2E9A53
:1023600009C0259A2D9A04C0259A2D9A269A2E9A4C
:10237000279A2F9A409368025093690260936A02E9
:1023800070936B021F910F910C949E1C0F931F93DF
:1023900041E050E060E070E004C0440F551F661F4C
:1023A000771F8A95D2F740955095609570958091EA
:1023B000680290916902A0916A02B0916B028A0151
:1023C0009B01082319232A233B23C901B8011F912C
:1023D0000F910C944F1120916C0280958223809371
:1023E0006C02982F977079F430E0482F082E000C7B
:1023F000550B2417350739F08595859585950E94ED
:10240000C61110926C0208950F931F9341E050E0A3
:1024100060E070E004C0440F551F661F771F8A9567
:10242000D2F78091680290916902A0916A02B091FE
:102430006B028A019B01082B192B2A2B3B2BC9010C
:10244000B8011F910F910C944F116093700270931B
:10245000710280937202909373020C949E1C80917F
:1024600030029091FF01891719F08F5F8770FBCFC1
:1024700008958091FE0182958F7009F054C080917B
:10248000FB01882309F44FC080913002A091FF0125
:102490006091F9017091FA014091FC015091FD01A8
:1024A000B6E08A1709F43FC090E041155105C1F12B
:1024B0007F3F11F46F3FA1F1B89FF001B99FF00D7C
:1024C0001124E050FE4F218172132AC02081621333
:1024D00027C02281211124C023813481241735078C
:1024E00010F421503109241B350B283C3105C0F470
:1024F0002091FE012F7020612093FE0126E0289F8D
:10250000F001299FF00D1124EB5FFD4F80818F704A
:102510008061808389EF91E00E94BA020C942F12AF
:1025200001968770BECF0895BF92CF92DF92EF924F
:10253000FF920F931F93CF93DF93CDB7DEB76197D1
:102540000FB6F894DEBF0FBECDBF8C0185E0F80159
:10255000DE011D9601900D928A95E1F7D8013C911C
:1025600011962C9111971296EC9012971396CD908C
:10257000DC9014975091F9016091FA018091FC016F
:102580009091FD01009709F44FC16F3F19F45F3F2F
:1025900009F44AC1B090FB01BB2009F4ECC04091A2
:1025A000FE01C816D90628F0F601E81BF90BCF0189
:1025B00004C0809590958C0D9D1DFF24F394883C5C
:1025C000910548F0F12C407F09F09FC089EF91E020
:1025D0000E94BA0221C1842F807F09F044C0621397
:1025E00012C0531310C0E1100EC04F7040614093F1
:1025F000FE0189EF91E00E94BA028091FE01D801AC
:1026000015968C932EC0CD2819F12F3F11F43F3F22
:10261000F9F0FE2CE1101CC0809130024091FF01C6
:1026200056E0841709F458C090E0589FF001599F74
:10263000F00D1124E050FE4F6181261306C0608129
:10264000361303C06281611103C001968770E9CF20
:10265000FE2CEE2009F421C18091FE01816080935F
:10266000FE01F12C1AC162130AC0531308C0E11015
:1026700006C08091FE01D80115968C93B0C03D87AD
:102680002E878D859E850E94771C8823D1F1EE20B0
:10269000C1F12091FE01822F82958F7090E0029708
:1026A00074F08091F9019091FA0198878F831986CF
:1026B000DB86CA862C87CE0107960E94BA0286E086
:1026C000F801A9EFB1E001900D928A95E1F70E941F
:1026D0003912FF24F394E1C03D872E878D859E85B6
:1026E0000E94E710292F22952F7030E0223031050B
:1026F0000CF0C7C09F7009F0C1C0805E883008F43C
:10270000CCC0C8010E94BA02E4CF621314C05313B4
:1027100012C0E11010C08091FE01F8018583C8014C
:102720000E94BA0286E0E9EFF1E0DF011D928A958E
:10273000E9F7FB2CB2C03D872E878D859E850E94D0
:10274000771C8823F1F2EE20E1F22091FE01822F26
:1027500082958F7090E002970CF4B1CF8091F901CF
:102760009091FA019A8389831B82DD82CC822E8329
:10277000CE010196A2CFC816D90638F0C81AD90AD8
:10278000B8ECCB16D10450F007C0809590958C0D15
:102790009D1D883C910510F0F12C3EC0FE2CEE20D2
:1027A00009F4AFCF621327C0531325C02091FE0157
:1027B00020FD18C0822F82958F70482F50E0411560
:1027C000510581F0F80125834F30510541F08F5FAD
:1027D000982F9295907F822F8F70892B8583C801C7
:1027E0000E94BA0286E0F801A9EFB1E001900D92D3
:1027F0008A95E1F752C03D872E878D859E850E9480
:10280000771C81115CCF8091FE0181608093FE0175
:10281000C8010E94BA0241C0E9EFF1E086E0DF01A1
:102820001D928A95E9F739C0EE2009F46ACF3D87F9
:102830002E878D859E850E94771CF82E882309F4AB
:1028400060CF86E0F801A9EFB1E001900D928A9582
:10285000E1F78091F9019091FA010E94E7109295B9
:102860009F70963041F48091F80191E08927809320
:10287000F8019093F7010E9439120FC081113DCFEA
:102880000CC0243031050CF03CCF9F7009F435CFDB
:10289000F8019581907F09F030CF8F2D61960FB6AA
:1028A000F894DEBF0FBECDBFDF91CF911F910F9186
:1028B000FF90EF90DF90CF90BF900895CF93DF937C
:1028C0008093BB0084E88093BC000E94700FEC01F1
:1028D0009091BC0097FD0AC00E94700F8C1B9D0B4D
:1028E00084369105A8F38EEF9FEF0CC02091B900BC
:1028F000287F81E090E0283211F480E090E091950B
:1029000081959109DF91CF9108950F931F93CF93F4
:10291000DF93C82F1092BC0084EA8093BC000E9411
:10292000700F8C019091BC0097FD0AC00E94700F3F
:10293000801B910B84369105A8F38EEF9FEF2AC080
:102940009091B900987F983041F09091B900987FAC
:10295000903119F08FEF9FEF1DC0C093BB0084E84A
:102960008093BC000E94700FEC019091BC0097FD19
:1029700008C00E94700F8C1B9D0B84369105A8F334
:10298000DCCF8091B900887F883111F0803411F755
:1029900080E090E0DF91CF911F910F910895CF9348
:1029A000DF93EC0180EEFE01099581EEFE01DF91DF
:1029B000CF910994CF92DF92FF920F931F93CF9301
:1029C000DF931F92CDB7DEB7F82E8B0199830E945B
:1029D000FA19998181111CC0CF2CD92E011511052E
:1029E000B1F08091E80085FD0AC08091E8008E7703
:1029F0008093E8000E94FA19882381F309C0F60148
:102A000081916F018093F10001501109E7CF80E0BF
:102A10000F90DF91CF911F910F91FF90DF90CF909A
:102A200008951F93CF93DF93CDB7DEB7AA970FB664
:102A3000F894DEBF0FBECDBFE0EAF2E088E08E0F73
:102A40009091F10091938E13FBCF8091A10283307E
:102A500009F460C030F4813071F0823009F49CC018
:102A6000B3C08A3009F488C08B3009F46BC0893058
:102A700009F0AAC020C08091A002813A09F0A4C048
:102A80008091E800877F8093E8008091A402909174
:102A9000A502892B21F460E28CE792E003C060E09C
:102AA00080E090E070E00E94801A8091E8008B77CF
:102AB0008093E80089C08091A002813209F084C02F
:102AC0008091A4029091A502029708F07DC08091A8
:102AD000E800877F8093E8008091E80082FD05C0D0
:102AE00080919E028111F8CF6FC02091F3008091F8
:102AF000F20090E0922B029729F48091F1008B7FF5
:102B0000813021F48091F10080937B028091E80074
:102B10008B7756C08091A002813A09F055C0809110
:102B2000A4029091A502892B09F04EC08091E80083
:102B3000877F8093E8008091E80080FFFCCF809140
:102B4000060139C08091A0028132F1F58091A40282
:102B50009091A502892BC1F58091E800877F809331
:102B6000E8000E942C1A8091A20280930601109224
:102B700079020E94AC1C28C08091A002813221F50C
:102B80008091E800877F8093E8000E942C1A809152
:102B9000A30280937A0218C08091A002813AA1F426
:102BA0008091E800877F8093E8008091E80080FFB3
:102BB000FCCF80917A028093F1008091E8008E77BB
:102BC0008093E8000E942C1A8091E80083FFD6C110
:102BD0008091A0029091A102492F50E04A30510506
:102BE00008F0CCC1FA01E956FF4F0C94AA1E8038B8
:102BF00021F0823809F0C2C108C080919C029091F6
:102C00009D02992389F082600FC08091A4028F7089
:102C1000873008F0B3C18093E9008091EB0085FB19
:102C2000882780F91092E9009091E800977F9093AF
:102C3000E8008093F1001092F10074C1282F2D7FDD
:102C400009F09CC1882319F0823061F097C180910E
:102C5000A202813009F092C1933009F080E08093A4
:102C60009D022EC08091A20281112AC08091A402EF
:102C70008F702FEF280F263008F080C18093E90075
:102C80002091EB0020FF1CC0933021F48091EB00D9
:102C9000806214C09091EB0090619093EB0021E072
:102CA00030E0A90102C0440F551F8A95E2F7409316
:102CB000EA001092EA008091EB0088608093EB00BC
:102CC0001092E9008091E800877F2FC1811156C1E1
:102CD0001091A2021F778091E3008078812B80936E
:102CE000E3008091E800877F8093E8000E942C1A1F
:102CF0008091E80080FFFCCF8091E30080688093A2
:102D0000E300111102C082E001C083E080939E02C3
:102D100035C18058823008F031C18091A202909173
:102D2000A3028C3D53E0950779F583E08A838AE21C
:102D300089834FB7F894DE01139620E03EE051E21C
:102D4000E32FF0E050935700E49120FF03C0E29599
:102D5000EF703F5FEF708E2F90E0EA3010F0C79673
:102D600001C0C0968D939D932F5F243149F74FBFCB
:102D70008091E800877F8093E8006AE270E0CE01EE
:102D800001960E94801ABDC04091A4025091A502F4
:102D9000292F332723303105B9F06CF42130310568
:102DA00009F4FBC02230310509F0E8C08BE390E064
:102DB000EFEAF4E054C02132310509F433C0223285
:102DC000310509F43CC0DAC0992781309105D1F072
:102DD0005CF4892B09F0D2C0E2E3F5E0E4918E2F98
:102DE00090E0E2E3F5E038C08230910599F0039776
:102DF00009F0C4C0ECEFF4E0E4918E2F90E0ECEF2A
:102E0000F4E02AC0EAE1F5E0E4918E2F90E0EAE1F7
:102E1000F5E022C0E2E0F5E0E4918E2F90E0E2E000
:102E2000F5E01AC04115510509F4BCC04130510507
:102E300009F0A4C089E090E0EAEDF4E010C041158B
:102E4000510509F4B4C04130510509F097C081E73C
:102E500090E0EEEFF3E003C0009709F48FC02091FB
:102E6000E800277F2093E8002091A6023091A70276
:102E70002817390708F4C90140E0009789F120912B
:102E80009E02222309F43DC02530D9F12091E800AB
:102E900023FD37C02091E80022FD2FC02091E800DB
:102EA00020FFEBCF4091F3002091F20030E0342B73
:102EB000009759F02830310540F444914093F100D7
:102EC000319601972F5F3F4FF3CF41E02830310516
:102ED00009F040E02091E8002E772093E800CDCF64
:102EE0004111CDCF0AC080919E02882351F08530D8
:102EF00041F08091E80083FD04C08091E80082FFEA
:102F0000F2CF8091E8008B778093E80037C080385B
:102F1000A9F58091E800877F8093E80080919F0267
:102F20008093F1008091E8008E778093E8000E9402
:102F30002C1A24C0811122C01091A2021230F0F488
:102F40008091E800877F8093E80010939F020E94A1
:102F50002C1A111106C08091E30087FD02C081E0A8
:102F600001C084E080939E0242E061EC81E00E9417
:102F70004B1A42E261EC82E00E944B1A8091E80019
:102F800083FF1AC08091E800877F8093E8008091DA
:102F9000EB0080628093EB000FC082E190E0EAEEEC
:102FA000F4E05DCF89E090E0E1ECF4E058CF80E41C
:102FB00090E0EFE6F4E053CFAA960FB6F894DEBFA8
:102FC0000FBECDBFDF91CF911F9108951F920F9239
:102FD0000FB60F9211242F933F934F935F936F93EC
:102FE0007F938F939F93AF93BF93CF93DF93EF9391
:102FF000FF93C091E900CF708091EC00D82FD17081
:1030000080FDD0E81092E9008091F000877F8093E6
:10301000F00078940E9411151092E9008091F00060
:1030200088608093F000CD2BCF70C093E900FF91B2
:10303000EF91DF91CF91BF91AF919F918F917F9150
:103040006F915F914F913F912F910F900FBE0F9015
:103050001F901895E8EDF0E080818E7F80831092BC
:10306000E2001092DA001092E100A0EEB0E08C9144
:1030700081608C9380818F77808319BCA7EDB0E04D
:103080008C918E7F8C9380818F7E808310927802CA
:103090000895CF92DF92EF92FF920F931F93CF93F9
:1030A000DF93C8EDD0E088818F7E8883E7EDF0E084
:1030B00080818160808384E082BF81E08093780298
:1030C00088818E7F888302EE10E0F80110821092D2
:1030D000DA0081EEC82ED12CF601108288818F771C
:1030E000888388818068888388818F7D888319BCE4
:1030F00010929E0210929F0210929D0210929C02CA
:1031000090EEE92EF12CF70180818B7F80838881FE
:103110008160888342E060E080E00E944B1AF60103
:1031200080818E7F8083F8018081816080838081AF
:1031300088608083F70180818E7F808388818061B1
:103140008883DF91CF911F910F91FF90EF90DF90D7
:10315000CF9008951F920F920FB60F9211242F93C4
:103160003F934F935F936F937F938F939F93AF930F
:10317000BF93EF93FF938091E10082FF09C080919C
:10318000E20082FF05C08091E1008B7F8093E10027
:103190008091DA0080FF2AC08091D80080FF26C08D
:1031A0008091DA008E7F8093DA008091D90080FFD1
:1031B00018C080E189BD82E189BD09B400FEFDCF60
:1031C00081E080939E028091780281110FC00E945D
:1031D0002A180E9449188091E20084608093E200DE
:1031E00005C019BC10929E02109278028091E100F5
:1031F00080FF17C08091E20080FF13C08091E20041
:103200008E7F8093E2008091E20080618093E200F3
:103210008091D80080628093D80019BC85E08093AB
:103220009E028091E10084FF34C08091E20084FF1F
:1032300030C080E189BD82E189BD09B400FEFDCFC7
:103240008091D8008F7D8093D8008091E1008F7E9F
:103250008093E1008091E2008F7E8093E200809174
:10326000E20081608093E20080919F02882311F048
:1032700084E007C08091E30087FD02C081E001C0C7
:1032800083E080939E02109279020E94AC1C0E94FF
:10329000310A8091E10083FF27C08091E20083FF23
:1032A00023C08091E100877F8093E10082E08093DA
:1032B0009E0210929F028091E1008E7F8093E10038
:1032C0008091E2008E7F8093E2008091E200806135
:1032D0008093E20042E060E080E00E944B1A80911F
:1032E000F00088608093F000FF91EF91BF91AF9163
:1032F0009F918F917F916F915F914F913F912F910E
:103300000F900FBE0F901F9018950895CF93DF93E5
:1033100000D01F92CDB7DEB79C019091A802911109
:1033200005C080919E02843049F504C0923011F0AE
:10333000943021F584E089833B832A8382E0809363
:10334000E9008FEF9091E800815095FD06C095ED62
:103350009A95F1F700008111F5CF8091E80085FF83
:103360000DC040E050E063E070E0CE0101960E94A5
:10337000DA148091E8008E778093E8000F900F9028
:103380000F90DF91CF910895CF93DF9300D01F92DC
:10339000CDB7DEB720919E02243031F523E029839A
:1033A000805891099B838A8382E08093E9008FEFA4
:1033B0009091E800815095FD06C095ED9A95F1F742
:1033C00000008111F5CF8091E80085FF0DC040E03D
:1033D00050E063E070E0CE0101960E94DA14809123
:1033E000E8008E778093E8000F900F900F90DF91A8
:1033F000CF9108952091E4003091E50095E6409149
:10340000EC00842F817040FF22C08091E80080FD95
:103410001CC080919E02882391F0853091F08091AC
:10342000EB0085FD10C04091E4005091E50042178B
:10343000530729F39A01915011F784E0089582E02F
:10344000089583E0089581E0089580E00895409113
:10345000E80042FFDECF08958091A00287FF11C0EF
:103460008091E80082FD05C080919E028111F8CF15
:1034700011C08091E8008B770BC080919E02882359
:1034800049F08091E80080FFF8CF8091E8008E77C6
:103490008093E8000895982F973058F59093E900AD
:1034A000981739F07091EC002091ED005091F000E8
:1034B00003C0242F762F50E021FF19C03091EB007C
:1034C0003E7F3093EB003091ED003D7F3093ED0077
:1034D0003091EB0031603093EB007093EC0020935F
:1034E000ED005093F0002091EE0027FF07C09F5F92
:1034F000D3CF8F708093E90081E0089580E0089534
:103500002091A6023091A7022617370748F06115CF
:10351000710539F42091E8002E772093E80001C06E
:10352000B90140E061157105A9F120919E022223A5
:1035300009F443C0253009F442C02091E80023FD7E
:1035400040C02091E80022FD32C02091E80020FF19
:10355000E9CF4091F3002091F20030E0342BFC01E0
:10356000CF016115710559F02830310540F4819182
:103570008093F100615071092F5F3F4FF1CF41E01F
:103580002830310509F040E02091E8002E772093A3
:10359000E800C8CF4111C9CF0AC080919E0288239C
:1035A00061F0853061F08091E80083FD0AC0809170
:1035B000E80082FFF2CF80E0089582E0089583E082
:1035C000089581E00895CF93DF93CDB7DEB72A97B2
:1035D0000FB6F894DEBF0FBECDBF84B7877F84BF20
:1035E0000FB6F894A8958091600088618093600080
:1035F000109260000FBE80E880936100109261001D
:1036000085B7806885BF85B7806885BF0E942A1806
:103610000E9449188091E20084608093E2007894CF
:1036200080919E028823A1F01091E9001F70909173
:10363000EC00892F817090FD80E8182B1092E90032
:103640008091E80083FD0E9411151F701093E9001E
:1036500082E084BD93E095BD9AEF97BD80936E00A4
:103660000E94560D90E090930801809307010E94FC
:10367000190E0E94280EAFEAB2E0E2ECF2E05EE042
:10368000F52EFE0E11921D92FE12FCCF8EE090E000
:103690000E94B01E8093A9029093AA02FC010E968C
:1036A0002BEF2193E817F907E1F780E090E00E9403
:1036B0005C1E8D3E9E4F11F00E9408108CE090E041
:1036C0000E94541E90E0A0E0B0E08093AB02909383
:1036D000AC02A093AD02B093AE0289EA8093800061
:1036E00089E08093810024982C983F988AB18F7C40
:1036F0008AB96E98479A8BB180638BB9769A0E948B
:10370000C10D80E090E00E945C1E8D3E9E4F11F046
:103710000E94081082E090E00E94541E8093D10223
:1037200084E090E00E94541E90E09093BE0280934B
:10373000BD0283E090E00E94541E682F70E080E09C
:1037400090E00E94251289E091E09093C00280935E
:10375000BF02EE24EA94CC24C394D12C90E1892EAC
:1037600022E1522E38E1A32EB12C40E4942E809118
:103770009E02853009F043C080919E02843009F199
:103780001092C1020FB6F894A895A09260000FBEE7
:103790009092600083B7817F846083BF83B781602C
:1037A00083BF7894889583B78E7F83BF0FB6F894D4
:1037B000A8958091600088618093600010926000FD
:1037C0000FBE80919D02882391F20E94560D90E0D9
:1037D00090930801809307010E94190E0E94280E01
:1037E000E2ECF2E01192FE12FDCF0E942F0EE2EC0D
:1037F000F2E08191811167C0FE12FBCFB8CF0E9429
:103800002F0EE2EDF2E0A2ECB2E000E010E0702F4B
:103810006D9121912627B1F180E090E030E0782E83
:10382000A901082E02C0559547950A94E2F740FF7A
:1038300025C089837A83C60102C0880F991F7A94B4
:10384000E2F73C01862F90E08621972121E0892B29
:1038500009F420E02B830E94700F8160782F9D83F4
:103860008C8349815A816B818D810E942F09F801D7
:10387000EE52FD4F80816826608219C00196863025
:10388000910569F60F5F1F4F0E30110509F0BFCF8C
:10389000EE82EF8218860E94700F8160782F9A87DF
:1038A00089874E815F8168858A850E942F091091E2
:1038B000D0020E94310A181709F459CF0E94310A28
:1038C0008093D00254CF89BC59BC09B400FEFDCF0F
:1038D0008091D8008F7D8093D8008091E000826035
:1038E0008093E0008091E00081FDFCCF40CF0E94FA
:1038F000E710292F2F7092959F70E92FF0E03297F3
:10390000EE30F105B8F4EF55FF4F0C94AA1E803F3E
:1039100099F018F4803E70F40FC0843F59F40CC045
:10392000803E50F0813F31F407C0822F8695869506
:103930008695089580E0089581E0089510926E02C2
:1039400010926D020E94601080E090E00E941B0ABD
:1039500080E090E00C94050A80910601882331F004
:103960008091BD0287FF02C08EE101C086E0E9EDD3
:10397000F1E0DF011D928A95E9F70C949E1C8823E3
:1039800041F08095909179028923809379020C947B
:1039900060100895882339F090917902892B8093E3
:1039A00079020C9460100895882309F458C0682F98
:1039B000823869F40E94310A81FF51C069E387EDC2
:1039C00091E00E94D00F0E94601069E30EC083381E
:1039D00091F40E94310A80FF42C063E587ED91E0D7
:1039E0000E94D00F0E94601063E587ED91E00E9475
:1039F000A50F0C946010843869F40E94310A82FF8C
:103A00002EC067E487ED91E00E94D00F0E94601005
:103A100067E4EBCF8CEF860F813A38F380E2860FB4
:103A2000883070F4677081E090E001C0880F6A957B
:103A3000EAF7809590917902892380937902D9CF12
:103A40008BE5860F833020F480E090E00C941B0A15
:103A5000685A673120F480E090E00C94050A0895DC
:103A6000882309F40DC1682F8238B1F40E94310A0D
:103A700081FD06C169E387ED91E00E94D00F0E94AD
:103A800060102FEF81EE94E0215080409040E1F7EC
:103A900000C0000069E317C08338D9F40E94310ADE
:103AA00080FDEEC063E587ED91E00E94D00F0E949B
:103AB00060102FEF81EE94E0215080409040E1F7BC
:103AC00000C0000063E587ED91E00E94A50F0C9413
:103AD00060108438B1F40E94310A82FDD1C067E4DD
:103AE00087ED91E00E94D00F0E9460102FEF81EED1
:103AF00094E0215080409040E1F700C0000067E46E
:103B0000E2CF8CEF860F813A28F487ED91E00E9496
:103B1000D00FDDCF80E2860F883068F4677081E0D7
:103B200090E001C0880F6A95EAF790917902892B9D
:103B300080937902CCCF8BE5860F833070F4653AA1
:103B400029F0663A31F083E890E005C081E890E022
:103B500002C082E890E00C941B0A88E5860F87314A
:103B600008F08EC0683A09F445C0693A09F445C0C6
:103B70006A3A09F445C06B3A09F445C06C3A09F455
:103B800045C06B3B09F445C06C3B09F445C06D3A38
:103B900009F445C0603B09F445C06E3A09F445C0DC
:103BA0006F3A09F445C0613B09F445C0623B09F432
:103BB00045C0633B09F445C0643B09F445C0653B1F
:103BC00009F445C0663B09F445C0673B09F445C0AC
:103BD000683B09F445C0693B09F445C06D3B09F4F5
:103BE00045C06E3B09F445C06A3B09F445C080E01E
:103BF00090E044C082EE90E041C089EE90E03EC08B
:103C00008AEE90E03BC085EB90E038C086EB90E018
:103C100035C083EB90E032C084EB90E02FC087EB9F
:103C200090E02CC08CEC90E029C08DEC90E026C098
:103C300083E891E023C08AE891E020C082E991E026
:103C40001DC084E991E01AC081E292E017C083E2CE
:103C500092E014C084E292E011C085E292E00EC0CE
:103C600086E292E00BC087E292E008C08FE690E027
:103C700005C080E790E002C08AE292E00C94050A59
:103C80000895CF93C82F0E94301DC93349F42FEFF8
:103C900083EC99E0215080409040E1F700C00000A3
:103CA0008C2FCF910C94D41CF999FECF92BD81BD7D
:103CB000F89A992780B50895A8E1B0E042E050E075
:103CC0000C94881E262FF999FECF92BD81BDF89ADB
:103CD000019700B4021639F01FBA20BD0FB6F89450
:103CE000FA9AF99A0FBE08950396272F0E94631E31
:103CF0000E94621E252F0E94631E242F0C94631EB7
:103D00000196272F0E94631E0C94621EDC01CB01DA
:103D1000FC01F999FECF06C0F2BDE1BDF89A3196DB
:103D200000B40D9241505040B8F70895AA1BBB1B38
:103D300051E107C0AA1FBB1FA617B70710F0A61BAB
:103D4000B70B881F991F5A95A9F780959095BC01CC
:103D5000CD010895EE0FFF1F0590F491E02D099419
:103D6000CF93DF938230910510F482E090E0E091F0
:103D7000E202F091E30220E030E0C0E0D0E03097D2
:103D800011F14081518148175907C0F04817590770
:103D900061F482819381209719F09B838A832BC0E1
:103DA0009093E3028093E20226C02115310519F0B9
:103DB0004217530718F49A01BE01DF01EF01028098
:103DC000F381E02DDCCF2115310509F1281B390BDA
:103DD0002430310590F412968D919C9113976115C2
:103DE000710521F0FB019383828304C09093E30269
:103DF0008093E202FD01329644C0FD01E20FF31F01
:103E000081939193225031092D933C933AC0209194
:103E1000E0023091E102232B41F420910201309124
:103E200003013093E1022093E002209100013091E0
:103E300001012115310541F42DB73EB74091040130
:103E400050910501241B350BE091E002F091E10255
:103E5000E217F307A0F42E1B3F0B2817390778F061
:103E6000AC014E5F5F4F2417350748F04E0F5F1FC0
:103E70005093E1024093E0028193919302C0E0E00D
:103E8000F0E0CF01DF91CF9108950F931F93CF936F
:103E9000DF93009709F48CC0FC01329713821282E1
:103EA0000091E2021091E3020115110581F42081D5
:103EB0003181820F931F2091E0023091E102281797
:103EC000390779F5F093E102E093E00271C0D8017F
:103ED00040E050E0AE17BF0750F412962D913C9190
:103EE0001397AD012115310509F1D901F3CF9D01DA
:103EF000DA013383228360817181860F971F8217D5
:103F0000930769F4EC0128813981260F371F2E5F52
:103F10003F4F318320838A819B8193838283452B0A
:103F200029F4F093E302E093E20242C01396FC937B
:103F3000EE931297ED01499159919E01240F351F7F
:103F4000E217F30771F480819181840F951F029627
:103F500011969C938E938281938113969C938E935A
:103F60001297E0E0F0E0D80112968D919C911397A2
:103F7000009719F0F8018C01F6CF8D919C91980172
:103F80002E5F3F4F820F931F2091E0023091E1029C
:103F90002817390769F4309729F41092E302109238
:103FA000E20202C0138212821093E1020093E00247
:0E3FB000DF91CF911F910F910895F894FFCFEC
:103FBE000000E4022000012000FB0EFE0E8519C455
:103FCE00198619000D010D020D030D040D050D00CE
:103FDE000C010C020C030C040C050C000B010B0263
:103FEE000B030B040B050B000A010A020A030A0459
:103FFE000A050A0009010902090309040905090055
:10400E000801080208030804080508000701070252
:10401E000703070407050700060106020603060448
:10402E000605060005010502050305040505050044
:10403E000401040204030404040504000301030242
:10404E000303030403050300020102020203020438
:10405E000205020001010102010301040105010034
:0C406E0000010002000300040005000037
:00000001FF
